:020000040000FA
:06000000E7EF01F0120021
:020006001200E6
:060008000FEF00F01200F2
:02000E000000F0
:0100100000EF
:0800180017EF00F01200DACF2F
:10002000E4FFE652F292E552E5CFDAFF1100DACFB3
:10003000E4FFE652670ED76E6A0ED66EF294E55272
:10004000E5CFDAFF110045D9E652DF6A4DD8EFD887
:10005000F28E100ECD6ECF6ACE6A380EE66E040EAA
:10006000E66E5ED8E552E552E80EE66E030EE66EE9
:100070002CD9F1D7FDD81CD9E8AE02D0133404D066
:100080001250105C135011580BE2320EE66EF5EC74
:1000900001F0E552020EDB2A030EEDE3DB2AEBD77B
:1000A000040EE15C02E2E16AE552E16EF2D0E0D8D2
:1000B000FFD8E8AE02D0133404D01250105C1350B5
:1000C00011580BE2050EE66E11EC02F0E552020E3D
:1000D000DB2A030EEDE3DB2AEBD7040EE15C02E240
:1000E000E16AE552E16ED5D0010EC26E0E0EC16E10
:1000F000840EC06E610E926EDD0E936EC00E946E15
:10010000550E956E966A700EF26EB10EF16EF06A33
:10011000670ED76E6A0ED66E860ED56ED08E120022
:10012000BCD889D806E087D8E66E3CD8E552DF2AED
:10013000F8D7DF6A80D806E057D8AD6E9EA8FED704
:10014000D4D8F8D7D8D0A9D885D806E083D8E66E19
:1001500029D8E552DF2AF8D7DF6A7CD806E044D8F0
:10016000AD6E9EA8FED7C1D8F8D7C5D0B2D8020EC2
:10017000E126900EAB6E1F0EAF6E9EAAFED7010E4B
:10018000AECFDBFFDBCFE6FF0DD8E5522DD8DF6E1B
:10019000DF50106E020EE15C02E2E16AE552E16EB0
:1001A000105077D096D8640E0001F05D16E2EE5143
:1001B000EA6A800FE96E000EEA22FE0EDBCFEFFF47
:1001C000EE2B640E106E0C6EEEC007F003EC02F026
:1001D00003C0EEF00001F02B03D0F368F46803D005
:1001E000010EF36EF46A55D074D8E6520001EF5157
:1001F000EA6A800FE96E000EEA22EFCFDFFFF051CE
:1002000000080CE2EF2B640E106E0C6EEFC007F0CE
:1002100003EC02F003C0EFF00001F007DF50E552FD
:1002200038D0116AF0C0F3FF11C0F4FF12008D80C6
:1002300055D86EEF01F0DF50E76EFD0EDBCFF6FF15
:10024000FE0EDBCFF7FFE750F626000EF722080080
:10025000F5501200DF50E76EFD0EDBCFE9FFFE0E1A
:10026000DBCFEAFFE750E926000EEA22EF5012004A
:1002700030D8040EE126FD0EDBCFDEFFDBCFDDFF45
:10028000020EDB6A030EDB6A020EDB6A030EDB6A18
:100290001200E552E7CFD9FF12001BD8E652DF6A01
:1002A000200EAC6E1F0EAF6EAC8AAB8EDF6A1200F2
:1002B000020EDBCF10F0030EDBCF11F0DECF12F019
:1002C000DDCF13F0115013181200D4DEE552E552C1
:1002D0001200D9CFE6FFE1CFD9FF1200F40EE66E8F
:1002E000010EE66EF2DF8D701200010EE66EE66A18
:1002F000ECDFDF2A1200AC9A010EF36EF46AE552CD
:02030000C8D75C
:0E03020001000E000000EE00000003000000ED
:10031000020EF66E030EF76E000EF86E0001090075
:10032000F550E96F0900F550EA6F03E1E96701D084
:100330003DD00900F550E46F0900F550E56F090064
:10034000F550E66F09000900F550E96E0900F55017
:10035000EA6E090009000900F550E76F0900F55041
:10036000E86F09000900F6CFEBF0F7CFECF0F8CF1B
:10037000EDF0E4C0F6FFE5C0F7FFE6C0F8FF0001CE
:10038000E75302E1E85307E00900F550EE6EE70796
:10039000F8E2E807F9D7EBC0F6FFECC0F7FFEDC0D5
:0E03A000F8FF0001E907000EEA5BBFD712006C
:0203AE00000E3F
:1003B000F36E00EE00F0060E01D81200EA6002D0E3
:0E03C000EE6AFCD7F350E9601200EE6AFCD73B
:0203CE0015EE2A
:1003D00000F025EE00F0F86A0F9C88EC01F003ECC9
:0A03E00000F023EC00F0FBD7120040
:0603EA00FF0EE350146E4B
:1003F0001B0E00D001D0200EE76EE72EFED7142E84
:06040000FAD700D0120043
:0A040600036A080EE76ED89007366F
:1004100003360C50035C02E3036E072AE72EF7D77E
:020420001200C8
:0E042200FF0EE350E84E1200000000D000D0A4
:0804300000D0E82EFAD71200FB
:0804380048656C6C6F206875CB
:080440006D616E2E2E2E0A00E4
:020000040030CA
:0100010002FC
:010002001FDE
:010003001EDE
:010005008377
:010006008178
:010008000FE8
:01000900C036
:01000A000FE6
:01000B00E014
:01000C000FE4
:01000D0040B2
:00000001FF
